:100000000C9442000C946C030C9495030C94BE0366
:100010000C9454000C9454000C940F050C94E604BA
:100020000C94BD040C9471040C9454000C94540072
:100030000C9454000C9454000C9454000C945400F0
:100040000C9454000C9454000C9454000C945400E0
:100050000C945400F300FA00010108010F0116018D
:100060001D01240135013C0143014A0151015801A0
:100070005F01660177017D01830189018F0195018F
:100080009B01A10111241FBECFE5D8E0DEBFCDBF8B
:1000900020E0A0E6B0E001C01D92AA3CB207E1F763
:1000A0000E94B3010C9478080C94000081E08093C6
:1000B000620008950E944F06089562E080E00E9469
:1000C000DB00089562E081E00E94DB0008954AE5CC
:1000D00050E060E080E00E94970046E550E060E07C
:1000E00081E00E94970080E00E94C80081E00E94A9
:1000F000C8000E943C05089521E630E04CE251E042
:1001000060E070E08DE590E00E94790520E630E047
:1001100044EF51E065E070E082E690E00E947905EE
:10012000809162008823E1F30E94CD05FFCF0F93F9
:100130001F93CF93DF938330F8F46230F8F44115C6
:100140005105F1F08A01D62FC82F0E94E703B801AC
:100150008C2F0E945903DD2319F0D13039F012C0E1
:1001600062E08C2F0E94D80281E00DC063E08C2FEA
:100170000E94D80281E007C080E005C080E003C093
:1001800080E001C081E0DF91CF911F910F91089530
:10019000CF93883068F4C82F41E0682F80E00E9438
:1001A000BA0140E06C2F80E00E942F0281E001C084
:1001B00080E0CF910895883008F0C9C0633008F01E
:1001C000C8C0613009F447C020F0623009F485C02E
:1001D000C2C090E08830910508F0BFC0FC01E65D28
:1001E000FF4F0C94720841E060E080E00E942F0213
:1001F00081E0089541E061E080E00E942F0281E00B
:10020000089541E062E080E00E942F0281E00895BD
:1002100041E063E080E00E942F0281E0089541E028
:1002200064E080E00E942F0281E0089541E065E0F3
:1002300080E00E942F0281E0089541E066E080E0C6
:100240000E942F0281E0089541E067E080E00E9473
:100250002F0281E0089590E08830910508F07FC07A
:10026000FC01EE5CFF4F0C94720840E060E080E01F
:100270000E942F0281E0089540E061E080E00E944A
:100280002F0281E0089540E062E080E00E942F02AA
:1002900081E0089540E063E080E00E942F0281E069
:1002A000089540E064E080E00E942F0281E008951C
:1002B00040E065E080E00E942F0281E0089540E088
:1002C00066E080E00E942F0281E0089540E067E050
:1002D00080E00E942F0281E0089590E0883091052F
:1002E00008F03FC0FC01E65CFF4F0C94720860E030
:1002F00080E00E94A40281E0089561E080E00E9415
:10030000A40281E0089562E080E00E94A40281E0FE
:10031000089563E080E00E94A40281E0089564E013
:1003200080E00E94A40281E0089565E080E00E94E0
:10033000A40281E0089566E080E00E94A40281E0CA
:10034000089567E080E00E94A40281E0089580E0C3
:10035000089580E0089581E0089581E0089581E0A6
:10036000089581E008950E9467000E947C0080E06B
:1003700090E00895813011F130F08230D1F1833076
:1003800009F452C00895413059F42AB381E090E055
:1003900002C0880F991F6A95E2F7822B8ABB0895E5
:1003A00041115CC02AB381E090E002C0880F991F20
:1003B0006A95E2F7809582238ABB0895413059F40B
:1003C00027B381E090E002C0880F991F6A95E2F799
:1003D000822B87BB0895411141C027B381E090E093
:1003E00002C0880F991F6A95E2F78095822387BB28
:1003F0000895413059F424B381E090E002C0880FA1
:10040000991F6A95E2F7822B84BB0895411126C09B
:1004100024B381E090E002C0880F991F6A95E2F74B
:100420008095822384BB0895413059F421B381E043
:1004300090E002C0880F991F6A95E2F7822B81BB7A
:10044000089541110BC021B381E090E002C0880FF4
:10045000991F6A95E2F78095822381BB08958130C8
:1004600011F130F08230D1F1833009F452C0089597
:10047000413059F42BB381E090E002C0880F991FFE
:100480006A95E2F7822B8BBB089541115CC02BB3B8
:1004900081E090E002C0880F991F6A95E2F780958D
:1004A00082238BBB0895413059F428B381E090E05A
:1004B00002C0880F991F6A95E2F7822B88BB0895C6
:1004C000411141C028B381E090E002C0880F991F1C
:1004D0006A95E2F78095822388BB0895413059F4EC
:1004E00025B381E090E002C0880F991F6A95E2F77A
:1004F000822B85BB0895411126C025B381E090E091
:1005000002C0880F991F6A95E2F78095822385BB08
:100510000895413059F422B381E090E002C0880F81
:10052000991F6A95E2F7822B82BB089541110BC097
:1005300022B381E090E002C0880F991F6A95E2F72C
:100540008095822382BB0895813089F028F0823023
:10055000C9F0833011F108952BB381E090E002C01F
:10056000880F991F6A95E2F782278BBB089528B3FD
:1005700081E090E002C0880F991F6A95E2F7822718
:1005800088BB089525B381E090E002C0880F991FD1
:100590006A95E2F7822785BB089522B381E090E057
:1005A00002C0880F991F6A95E2F7822782BB0895DF
:1005B000833008F072C0643008F071C0813081F17E
:1005C00020F0823009F457C06CC08BB780648BBFB9
:1005D000613071F028F0623099F06330C9F063C087
:1005E00085B78E7F85BF85B78D7F85BF81E00895F4
:1005F00085B7816085BF85B78D7F85BF81E0089510
:1006000085B78E7F85BF85B7826085BF81E00895FD
:1006100085B7816085BF85B7826085BF81E0089519
:100620008BB780688BBF613071F028F0623099F031
:100630006330C9F03AC085B78B7F85BF85B7877FA8
:1006400085BF81E0089585B7846085BF85B7877FC2
:1006500085BF81E0089585B78B7F85BF85B78860AA
:1006600085BF81E0089585B7846085BF85B78860C0
:1006700085BF81E008958BB780628BBF623019F02F
:10068000633031F014C084B78F7B84BF81E008955C
:1006900084B7806484BF81E0089580E0089580E09D
:1006A000089581E0089581E0089581E0089581E052
:1006B0000895833068F46115710561F0E82FF0E06A
:1006C000EE0FFF1FED59FF4F7183608381E00895A6
:1006D00080E0089580E008951F920F920FB60F9268
:1006E00011242F933F934F935F936F937F938F9337
:1006F0009F93AF93BF93EF93FF93E0916300F091CB
:100700006400309709F00995FF91EF91BF91AF9187
:100710009F918F917F916F915F914F913F912F9119
:100720000F900FBE0F901F9018951F920F920FB64B
:100730000F9211242F933F934F935F936F937F9367
:100740008F939F93AF93BF93EF93FF93E0916500D7
:10075000F0916600309709F00995FF91EF91BF91F4
:10076000AF919F918F917F916F915F914F913F9149
:100770002F910F900FBE0F901F9018951F920F9200
:100780000FB60F9211242F933F934F935F936F9364
:100790007F938F939F93AF93BF93EF93FF93E091DA
:1007A0006700F0916800309709F00995FF91EF918B
:1007B000BF91AF919F918F917F916F915F914F9179
:1007C0003F912F910F900FBE0F901F9018958FB7EC
:1007D00080688FBF0895FC01892B41F11DBC1CBCB2
:1007E0001BBC1ABC19BC18BC17BC16BC8EB59181B9
:1007F000887F892B8EBD9FB580819C7F8370892BDC
:100800008FBD9EB58081977C8871892B8EBD80813C
:10081000882311F0883019F48FB58C608FBD89B7AB
:100820009281837C892B89BF81E0089580E00895BF
:10083000CF92DF92EF92FF9229B7246029BFBC01CB
:1008400080E090E00E947F076B017C012FE632E19F
:1008500043E051E40E94D9068823DCF4A701960105
:100860006FE672E183E091E40E9455062FE632E1E3
:1008700043E059E30E94DE060E94C2060E94500730
:1008800070936E0060936D0010926C0010926B007C
:1008900012C02FE632E143E051E4C701B6010E94E5
:1008A000DE060E94500770936C0060936B001092FC
:1008B0006E0010926D0080916D0090916E009DBD54
:1008C0008CBD8EB5887F81608EBDFF90EF90DF90EC
:1008D000CF9008951EBC0895909376008093750084
:1008E00008951F920F920FB60F9211242F933F93EA
:1008F0004F935F936F937F938F939F93AF93BF9328
:10090000EF93FF93E0917500F0917600309721F11D
:1009100020916B0030916C0021153105B1F0809170
:10092000690090916A00019690936A008093690033
:100930008091690090916A002817390769F4099538
:1009400010926A001092690007C0099580916D00AD
:1009500090916E009DBD8CBDFF91EF91BF91AF91C5
:100960009F918F917F916F915F914F913F912F91C7
:100970000F900FBE0F901F9018951F920F920FB6F9
:100980000F9211242F933F934F935F936F937F9315
:100990008F939F93AF93BF93EF93FF93E091710079
:1009A000F0917200309709F00995FF91EF91BF9196
:1009B000AF919F918F917F916F915F914F913F91F7
:1009C0002F910F900FBE0F901F9018951F920F92AE
:1009D0000FB60F9211242F933F934F935F936F9312
:1009E0007F938F939F93AF93BF93EF93FF93E09188
:1009F0007300F0917400309709F00995FF91EF9121
:100A0000BF91AF919F918F917F916F915F914F9126
:100A10003F912F910F900FBE0F901F9018951F922E
:100A20000F920FB60F9211242F933F934F935F9322
:100A30006F937F938F939F93AF93BF93EF93FF93A6
:100A4000E0916F00F0917000309709F00995FF91E7
:100A5000EF91BF91AF919F918F917F916F915F9136
:100A60004F913F912F910F900FBE0F901F901895AF
:100A700081E0809378000895CF93DF9300D01F9298
:100A8000CDB7DEB719821A8284E08B83809179001A
:100A90008823B1F080E027C0E82FF0E0EE0FFF1FC1
:100AA000EE0FFF1FEE0FFF1FE658FF4F118210825F
:100AB0001382128215821482168217828F5F01C000
:100AC00080E08A3048F381E080937900CE0101967E
:100AD0000E94EB0381E090E00E94180488E395E017
:100AE0000E946C0481E00F900F900F90DF91CF91E6
:100AF0000895CF93DF93EC0190E001C09F5FA92F91
:100B0000B0E0FD01EE0FFF1FEE0FFF1FEE0FFF1F06
:100B1000E658FF4F0190F081E02DEF2B11F09A3055
:100B200068F39A30C9F0AA0FBB1FAA0FBB1FAA0F08
:100B3000BB1FA658BF4F1196DC93CE9313967C93A0
:100B40006E93129715965C934E93149716969C93FA
:100B5000F901908381E001C080E0DF91CF91089599
:100B6000E82FF0E0DF01AA0FBB1FAA0FBB1FAA0FDF
:100B7000BB1FA658BF4F8D919C911197892B59F09F
:100B8000FD01118210821382128215821482168254
:100B9000178281E0089580E008950F931F93CF930B
:100BA00075C08C2F90E0FC01EE0FFF1FEE0FFF1FB2
:100BB000EE0FFF1FE658FF4F2781213079F48F0198
:100BC0000190F081E02D0995F801178284819581CB
:100BD000892B49F48C2F0E94B00505C0CF5F01C05E
:100BE000C0E0CA30F0F280917800813009F04EC048
:100BF0001092780020E047C0822F90E0FC01EE0FB9
:100C0000FF1FEE0FFF1FEE0FFF1FE658FF4F408143
:100C10005181452BB9F1FC01EE0FFF1FEE0FFF1FB5
:100C2000EE0FFF1FE658FF4F4281538141155105DA
:100C3000E1F4FC01EE0FFF1FEE0FFF1FEE0FFF1F91
:100C4000E658FF4F31E03783448155814115510506
:100C5000C9F0880F991F880F991F880F991FFC01F1
:100C6000E658FF4F538342830DC0880F991F880FAA
:100C7000991F880F991FFC01E658FF4F41505109F9
:100C8000538342832F5F2A3008F4B6CF80917700D8
:100C9000813009F0A5CFCF911F910F9108950E9447
:100CA0006A0481E08093770008955058BB27AA27F3
:100CB0000E946D060C9420080E94120838F00E94D1
:100CC000190820F039F49F3F19F426F40C940F080A
:100CD0000EF4E095E7FB0C94E007E92F0E94310841
:100CE00058F3BA17620773078407950720F079F461
:100CF000A6F50C946B080EF4E0950B2EBA2FA02DE0
:100D00000B01B90190010C01CA01A0011124FF27B8
:100D1000591B99F0593F50F4503E68F11A16F040B3
:100D2000A22F232F342F4427585FF3CF46953795B2
:100D30002795A795F0405395C9F77EF41F16BA0B77
:100D4000620B730B840BBAF09150A1F0FF0FBB1F25
:100D5000661F771F881FC2F70EC0BA0F621F731F6E
:100D6000841F48F4879577956795B795F7959E3FCB
:100D700008F0B0CF9395880F08F09927EE0F97955C
:100D8000879508950E94530890F09F3748F4911179
:100D900016F40C946C0860E070E080E89FE308951E
:100DA00026F01B16611D711D811D0C94E6070C9425
:100DB00001080E94BC0708F481E008950E94F20631
:100DC0000C9420080E94190858F00E94120840F064
:100DD00029F45F3F29F00C94E00751110C946C0842
:100DE0000C940F080E94310868F39923B1F355233E
:100DF00091F3951B550BBB27AA276217730784072E
:100E000038F09F5F5F4F220F331F441FAA1FA9F3C3
:100E100035D00E2E3AF0E0E832D091505040E695B1
:100E2000001CCAF72BD0FE2F29D0660F771F881F12
:100E3000BB1F261737074807AB07B0E809F0BB0B05
:100E4000802DBF01FF2793585F4F3AF09E3F510519
:100E500078F00C94E0070C946C085F3FE4F3983E44
:100E6000D4F3869577956795B795F7959F5FC9F702
:100E7000880F911D9695879597F90895E1E0660F83
:100E8000771F881FBB1F621773078407BA0720F0FC
:100E9000621B730B840BBA0BEE1F88F7E095089565
:100EA0000E94390888F09F5798F0B92F9927B751B9
:100EB000B0F0E1F0660F771F881F991F1AF0BA95FE
:100EC000C9F714C0B13091F00E946B08B1E00895E9
:100ED0000C946B08672F782F8827B85F39F0B93FDB
:100EE000CCF3869577956795B395D9F73EF49095B1
:100EF0008095709561957F4F8F4F9F4F0895E8942F
:100F000009C097FB3EF490958095709561957F4F51
:100F10008F4F9F4F9923A9F0F92F96E9BB279395FF
:100F2000F695879577956795B795F111F8CFFAF40F
:100F3000BB0F11F460FF1BC06F5F7F4F8F4F9F4F40
:100F400016C0882311F096E911C0772321F09EE89E
:100F5000872F762F05C0662371F096E8862F70E004
:100F600060E02AF09A95660F771F881FDAF7880FDE
:100F70009695879597F90895990F0008550FAA0B34
:100F8000E0E8FEEF16161706E807F907C0F012169C
:100F90001306E407F50798F0621B730B840B950B9F
:100FA00039F40A2661F0232B242B252B21F40895F4
:100FB0000A2609F4A140A6958FEF811D811D089591
:100FC00097F99F6780E870E060E00895882371F4E6
:100FD000772321F09850872B762F07C0662311F4D2
:100FE00099270DC09051862B70E060E02AF09A9509
:100FF000660F771F881FDAF7880F9695879597F900
:1010000008959F3F31F0915020F48795779567952B
:10101000B795880F911D9695879597F908959FEF3D
:1010200080EC089500240A9416161706180609067F
:10103000089500240A94121613061406050608954E
:10104000092E0394000C11F4882352F0BB0F40F4D6
:10105000BF2B11F460FF04C06F5F7F4F8F4F9F4F16
:10106000089557FD9058440F551F59F05F3F71F098
:101070004795880F97FB991F61F09F3F79F08795FF
:101080000895121613061406551FF2CF4695F1DF88
:1010900008C0161617061806991FF1CF8695710518
:1010A0006105089408950E943908A0F0BEE7B917B9
:1010B00088F4BB279F3860F41616B11D672F782F70
:1010C0008827985FF7CF869577956795B11D93959B
:1010D0009639C8F30895E894BB2766277727CB0194
:1010E00097F90895EE0FFF1F0590F491E02D0994F4
:0410F000F894FFCFA2
:00000001FF
